:100000000C945D000C9485000C9485000C94850084
:100010000C9485000C9485000C9485000C9485004C
:100020000C9485000C9485000C9485000C94240499
:100030000C9485000C9485000C9485000C9485002C
:100040000C94DA030C9485000C94A8030C9482039E
:100050000C9485000C9485000C9485000C9485000C
:100060000C9485000C94850000000008000201003B
:100070000003040700000000000000000000000072
:10008000250028002B0000000000240027002A0083
:10009000040404040404040402020202020203032E
:1000A0000303030301020408102040800102040836
:1000B0001020010204081020FB0411241FBECFEF02
:1000C000D8E0DEBFCDBF11E0A0E0B1E0E4E7F0E1B1
:1000D00002C005900D92A231B107D9F721E0A2E14B
:1000E000B1E001C01D92AD3EB207E1F710E0CDE5F1
:1000F000D0E004C02197FE010E943208CC35D10720
:10010000C9F70E943B050C9438080C94000090E05D
:10011000FC01EC55FF4F249180579F4FFC018491C7
:10012000882399F090E0880F991FFC01EA57FF4F50
:10013000A591B491FC01E458FF4F859194918FB73C
:10014000F894EC91E22BEC938FBF0895AF92BF929D
:10015000CF92DF92EF92FF920F931F93CF93DF9393
:100160006C017B018B01040F151FEB015E01AE18C2
:10017000BF08C017D10759F06991D601ED91FC91E4
:100180000190F081E02DC6010995892B79F7C50111
:10019000DF91CF911F910F91FF90EF90DF90CF9063
:1001A000BF90AF900895FC01538D448D252F30E012
:1001B000842F90E0821B930B541710F0CF96089574
:1001C00001970895FC01918D828D981761F0A28DA1
:1001D000AE0FBF2FB11D5D968C91928D9F5F9F7367
:1001E000928F90E008958FEF9FEF0895FC01918D1D
:1001F000828D981731F0828DE80FF11D858D90E08A
:1002000008958FEF9FEF0895FC01918D228D892F26
:1002100090E0805C9F4F821B91098F73992708950E
:1002200081E491E00E94040121E0892B09F420E09F
:10023000822F089580E090E0892B29F00E94100120
:1002400081110C9400000895FC01A48DA80FB92F12
:10025000B11DA35ABF4F2C91848D90E001968F73EE
:100260009927848FA689B7892C93A089B1898C910D
:10027000837080648C93938D848D981306C002885C
:10028000F389E02D80818F7D80830895EF92FF9226
:100290000F931F93CF93DF93EC0181E0888F9B8DA9
:1002A0008C8D98131AC0E889F989808185FF15C063
:1002B0009FB7F894EE89FF896083E889F989808186
:1002C0008370806480839FBF81E090E0DF91CF9155
:1002D0001F910F91FF90EF900895F62E0B8D10E077
:1002E0000F5F1F4F0F731127E02E8C8D8E110CC0E6
:1002F0000FB607FCFACFE889F989808185FFF5CF31
:10030000CE010E942401F1CFEB8DEC0FFD2FF11DEA
:10031000E35AFF4FF0829FB7F8940B8FEA89FB896D
:1003200080818062CFCFCF93DF93EC01888D8823CB
:10033000B9F0AA89BB89E889F9898C9185FD03C048
:10034000808186FD0DC00FB607FCF7CF8C9185FF2D
:10035000F2CF808185FFEDCFCE010E942401E9CF4D
:10036000DF91CF91089590E0FC01E859FF4F24916F
:10037000FC01EC55FF4F3491FC01E057FF4FE49135
:10038000EE23C9F0222339F0233001F1A8F4213003
:1003900019F1223029F1F0E0EE0FFF1FE458FF4F72
:1003A000A591B4918FB7F894EC91611126C0309566
:1003B0003E233C938FBF08952730A9F02830C9F021
:1003C000243049F7809180008F7D03C080918000A8
:1003D0008F7780938000DFCF84B58F7784BDDBCFAC
:1003E00084B58F7DFBCF8091B0008F778093B00074
:1003F000D2CF8091B0008F7DF9CF3E2BDACF3FB7BF
:10040000F89480913D0190913E01A0913F01B091FF
:10041000400126B5A89B05C02F3F19F00196A11DEC
:10042000B11D3FBFBA2FA92F982F8827BC01CD013E
:10043000620F711D811D911D42E0660F771F881F9D
:10044000991F4A95D1F708958F929F92AF92BF92CC
:10045000CF92DF92EF92FF924B015C010E94FF016D
:100460006B017C010E94FF016C197D098E099F09B7
:10047000683E734081059105A8F321E0821A910836
:10048000A108B10888EEC80E83E0D81EE11CF11C5B
:1004900081149104A104B10429F7FF90EF90DF903B
:1004A000CF90BF90AF909F908F9008958F929F9222
:1004B000AF92BF92FF920F931F93CF93DF93FC01F4
:1004C000F0808BE08F1508F453C0828108E512E0BC
:1004D000081B110987FD1395000F111F000F111F35
:1004E0008181C8E8D0E0C81BD10987FDD395CC0F26
:1004F000DD1FCC0FDD1F4E010D2E000CAA08BB081E
:10050000DB01653B710514F0A4EBB0E0B7FF02C05E
:10051000B0E0A0E09801012E000C440B550B281907
:1005200039094A095B090E94ED0724EB30E040E0FD
:1005300050E00E94C307820E931EA41EB51E8C16A7
:100540009D062CF0E801801691060CF4E401229738
:10055000CC0FDD1F2FB7F8948F2D90E0FC01EE0F2C
:10056000FF1FE80FF91FEC5EFE4FD283C1832FBF40
:10057000DF91CF911F910F91FF90BF90AF909F900F
:100580008F900895DF92EF92FF920F931F93CF9376
:10059000DF93EC01D62E7A01890188818C3008F036
:1005A00066C0862F0E9487008881282F30E0F901DD
:1005B000EE0FFF1FE20FF31FEC5EFE4F9D2D9F73AA
:1005C0006081607C692B608320E232E02E193F0954
:1005D00037FF02C02D5F3F4F3595279535952795FD
:1005E000298320E639E0201B310B37FF02C02D5F45
:1005F0003F4F35952795359527952A832CE0622F17
:100600000E942608829FB001112430E020E0AB0157
:10061000420F531FFA01EE0FFF1FE40FF51FEC5EB0
:10062000FE4F908196FD16C02F5F3F4F2C30310555
:1006300071F781110FC01092800082E080938100D9
:100640001092850010928400B19A80916F008260B0
:1006500080936F00E8818E2F90E0FC01EE0FFF1F6A
:10066000E80FF91FEC5EFE4F8081806480838881F3
:10067000DF91CF911F910F91FF90EF90DF90089540
:1006800070E060E08EED91E00C94560270E060E066
:100690008AEE91E00E94560270E060E087EE91E001
:1006A0000E94560270E060E084EE91E00E945602E3
:1006B00070E060E081EE91E00E94560270E060E040
:1006C0008EED91E00C94560264EB70E08AEE91E0BE
:1006D0000E94560264EB70E087EE91E00E945602A1
:1006E00064EB70E084EE91E00E94560264EB70E0EF
:1006F00081EE91E00E94560264EB70E08EED91E095
:100700000C9456021F920F920FB60F9211242F9342
:100710003F934F935F936F937F938F939F93AF9389
:10072000BF93EF93FF9381E491E00E942401FF9136
:10073000EF91BF91AF919F918F917F916F915F9159
:100740004F913F912F910F900FBE0F901F901895D2
:100750001F920F920FB60F9211242F938F939F9396
:10076000EF93FF93E0915101F09152018081E0916C
:100770005701F091580182FD1BC0908180915A0170
:100780008F5F8F7320915B01821741F0E0915A01D6
:10079000F0E0EF5BFE4F958F80935A01FF91EF9150
:1007A0009F918F912F910F900FBE0F901F901895D2
:1007B0008081F4CF1F920F920FB60F9211242F93C6
:1007C0003F938F939F93AF93BF9380913901909103
:1007D0003A01A0913B01B0913C013091380123E0F6
:1007E000230F2D3758F50196A11DB11D2093380117
:1007F0008093390190933A01A0933B01B0933C015F
:1008000080913D0190913E01A0913F01B091400146
:100810000196A11DB11D80933D0190933E01A093CF
:100820003F01B0934001BF91AF919F918F913F9154
:100830002F910F900FBE0F901F90189526E8230F51
:100840000296A11DB11DD2CF1F920F920FB60F922B
:1008500011242F933F934F935F936F937F938F93C5
:100860009F93AF93BF93CF93DF93EF93FF938091C9
:100870001201C0911301D0E087FF24C010928500BF
:1008800010928400809112018F5F809312018091F9
:100890001201082E000C990B8C179D0724F48091EF
:1008A00012018C30C4F180918400909185000496EF
:1008B00080349C4908F47AC080918400909185002E
:1008C000049676C080911201082E000C990B8C17AB
:1008D0009D07C4F6E09112018E2FEE0F990BFC01DB
:1008E000EE0FFF1FE80FF91FEC5EFE4F808186FFC1
:1008F000C9CFE09112018E2FEE0F990BFC01EE0F84
:10090000FF1FE80FF91FEC5EFE4F808160E08F73E0
:100910000E94B301B7CF2091840030918500E0910F
:1009200012018E2FEE0F990BFC01EE0FFF1FE80F47
:10093000F91FEC5EFE4F81819281820F931F90938D
:10094000890080938800E09112018E2FEE0F990BA1
:10095000FC01EE0FFF1FE80FF91FEC5EFE4F8081D8
:1009600086FF11C0E09112018E2FEE0F990BFC0152
:10097000EE0FFF1FE80FF91FEC5EFE4F808161E074
:100980008F730E94B301FF91EF91DF91CF91BF91DF
:10099000AF919F918F917F916F915F914F913F9117
:1009A0002F910F900FBE0F901F90189580E49CE937
:1009B00090938900809388008FEF80931201E3CF9A
:1009C000FC01909113019C3098F481E0890F809391
:1009D00013019083892F90E0FC01EE0FFF1FE80FB9
:1009E000F91FEC5EFE4F88EB9BE0928381830895B4
:1009F0008FEF80830895E1E4F1E01382128288EEA4
:100A000093E0A0E0B0E084839583A683B78384E07D
:100A100091E09183808385EC90E09587848784ECD6
:100A200090E09787868780EC90E0918B808B81ECBB
:100A300090E0938B828B82EC90E0958B848B86EC9C
:100A400090E0978B868B118E128E138E148E8AEE09
:100A500091E00E94E00487EE91E00E94E00484EEC1
:100A600091E00E94E00481EE91E00E94E0048EEDAE
:100A700091E00C94E004789484B5826084BD84B5E0
:100A8000816084BD85B5826085BD85B5816085BD89
:100A900080916E00816080936E0010928100809141
:100AA00081008260809381008091810081608093C9
:100AB0008100809180008160809380008091B100EE
:100AC00084608093B1008091B00081608093B00019
:100AD00080917A00846080937A0080917A008260AD
:100AE00080937A0080917A00816080937A0080916F
:100AF0007A00806880937A001092C10026EF39E076
:100B000042E652E062E070E08AEE91E00E94C202AA
:100B10002CEE39E04EE952E063E070E087EE91E0C0
:100B20000E94C20228E23AE044E952E064E070E048
:100B300084EE91E00E94C20228E23AE044E952E0E9
:100B400065E070E081EE91E00E94C20228E23AE0A6
:100B500044E952E066E070E08EED91E00E94C2024E
:100B600082E00E94870083E00E94870084E00E9468
:100B7000870085E00E94870086E00E948700E09160
:100B80005101F091520182E08083E0914D01F0919A
:100B90004E011082E0914F01F09150018FEC808363
:100BA00010925901E0915501F091560186E0808341
:100BB000E0915301F0915401808180618083E09144
:100BC0005301F0915401808188608083E09153014A
:100BD000F0915401808180688083E0915301F0910D
:100BE000540180818F7D80830E94460300E010E0E5
:100BF0000E94640360E273E080E090E00E942402BF
:100C00000E94460360E273E080E090E00E942402CC
:100C10000E94640368EE73E080E090E00E9424028A
:100C200070E060E08AEE91E00E94560268EE73E0A8
:100C300080E090E00E94240270E060E087EE91E0A6
:100C40000E94560268EE73E080E090E00E94240269
:100C500070E060E084EE91E00E94560268EE73E07E
:100C600080E090E00E94240270E060E081EE91E07C
:100C70000E94560268EE73E080E090E00E94240239
:100C80000E94400368EE73E080E090E00E9424023E
:100C900060E273E080E090E00E9424020E9446033C
:100CA00068EE73E080E090E00E94240264EB70E064
:100CB0008EED91E00E94560268EE73E080E090E0D5
:100CC0000E94240264EB70E081EE91E00E945602E3
:100CD00068EE73E080E090E00E94240264EB70E034
:100CE00084EE91E00E94560268EE73E080E090E0AE
:100CF0000E94240264EB70E087EE91E00E945602AD
:100D000068EE73E080E090E00E94240264EB70E003
:100D10008AEE91E00E94560268EE73E080E090E077
:100D20000E94240260E273E080E090E00E942402CE
:100D3000CCE4DFEFBE018EED91E00E94560261E04F
:100D400070E080E090E00E942402BE016C5D7F4F65
:100D50008AEE91E00E94560261E070E080E090E04F
:100D60000E942402BE01685B7F4F87EE91E00E94E3
:100D7000560261E070E080E090E00E942402BE0133
:100D800064597F4F84EE91E00E94560261E070E06A
:100D900080E090E00E942402BE0160577F4F81EE08
:100DA00091E00E94560261E070E080E090E00E94D5
:100DB00024022196C53BD10509F0BCCFC4EBD0E09D
:100DC000BE0181EE91E00E94560261E070E080E099
:100DD00090E00E942402BE016C5D7F4F84EE91E0A2
:100DE0000E94560261E070E080E090E00E942402E0
:100DF000BE01685B7F4F87EE91E00E94560261E082
:100E000070E080E090E00E942402BE0164597F4FB0
:100E10008AEE91E00E94560261E070E080E090E08E
:100E20000E942402BE0160577F4F8EED91E00E9428
:100E3000560261E070E080E090E00E942402219779
:100E4000CB348FEFD80709F0BBCF60E273E080E0CE
:100E500090E00E94240270E060E08AEE91E00E943F
:100E6000560264EB70E087EE91E00E94560264EB5C
:100E700070E084EE91E00E94560264EB70E081EE37
:100E800091E00E9456020E94400360E273E080E01D
:100E900090E00E94240264EB70E08EED91E00E94ED
:100EA000560260E273E080E090E00E9424020E941B
:100EB000400360E273E080E090E00E94240264EB73
:100EC00070E08EED91E00E94560260E273E080E0F7
:100ED00090E00E9424020E94400360E273E080E000
:100EE00090E00E94240270E060E08AEE91E00E94AF
:100EF000560264EB70E087EE91E00E94560270E0CB
:100F000060E084EE91E00E94560264EB70E081EEB6
:100F100091E00E94560264EB70E08EED91E00E9439
:100F2000560260E273E080E090E00E94240264EBED
:100F300070E08AEE91E00E94560270E060E087EE79
:100F400091E00E94560264EB70E084EE91E00E9412
:100F5000560270E060E081EE91E00E9456020E942D
:100F6000400360E273E080E090E00E9424020115FB
:100F7000110509F43DCE0E941001882309F438CEF2
:100F80000E94000035CE052E97FB1EF400940E94AF
:100F9000DA0757FD07D00E94F50707FC03D04EF48F
:100FA0000C94DA0750954095309521953F4F4F4F5F
:100FB0005F4F089590958095709561957F4F8F4F05
:100FC0009F4F08950E941708A59F900DB49F900D04
:100FD000A49F800D911D11240895B7FF0C94E20782
:100FE0000E94E207821B930B0895A1E21A2EAA1B0E
:100FF000BB1BFD010DC0AA1FBB1FEE1FFF1FA217C9
:10100000B307E407F50720F0A21BB30BE40BF50BC5
:10101000661F771F881F991F1A9469F7609570954E
:10102000809590959B01AC01BD01CF010895A29FD1
:10103000B001B39FC001A39F700D811D1124911DAC
:10104000B29F700D811D1124911D0895991B79E0A7
:1010500004C0991F961708F0961B881F7A95C9F748
:1010600080950895EE0FFF1F0590F491E02D0994EF
:04107000F894FFCF22
:10107400000000004601A600D30093010401E20031
:02108400F60074
:00000001FF
